:040000000201543273
:03000B0002015B94
:200010000000E2FBEAF2802C0000E0FBEAF08024E6B50202EBF62200E2B50202EBF22200D6
:20003000E0B50202EBF02230F6E0A88220F5D3EAC6F582228B822230F6E6A88220F5D980E6
:01005000CFE0
:03007E000200512C
:0300510002013673
:20008100753541E53860FCC2AFE5386009E53814F538D2AF8004D2AF80E9E53760FCC2AFCE
:2000A100E5376009E53714F537D2AF8004D2AF80E9E5342430F8A635E53404F5347403B5BD
:2000C1003403753400745AB535057535418005E53504F5350537053980A9438920758DFA3F
:2000E100759850C299D28EE53960FCC2AFE5396009E53914F539D2AF8004D2AF80E9E5370A
:2001010060FCC2AFE5376009E53714F537D2AF8004D2AF80E9E5332430F98736E53304F50E
:20012100337403B53303753300053705388536991099B480FB7533007534007535417536F5
:200141000075370175380375390090008112018F0200DB020161222222220202CC020054F1
:20016100C2AF75250075240075890090013612018F85822475A882D28CE5242420F88681FF
:20018100D0D0D083D082D0F0D0E0F8D0E022858228858329A2AFE433F52BC2AFAF25530758
:2001A1000FBF0F0AE52B24FF92AF7582FF22752600752A01E52A5525600DE52604F526E58B
:2001C1002A25E0F52A80EDE52A4225858127E526C454F0FF243FF581C028C029E4C0E0C0C0
:2001E100E0C0E0C0E0C0E0E526C40354F8F5E0C0E0E5262420F8A681852781E52B24FF924B
:20020100AF85268222C2AFC0E0E8C0E0C0F0C082C083C0D0E5242420F8A6810524E524548F
:2002210003F524601EB40108E525540260ED8019B40208E525540460E2800EE5255408606A
:20024100DA8006E525540160D2E5242420F88681D0D0D083D082D0F0D0E0F8D0E0D2AF2260
:20026100C2AFE5246015B401055325FD8010B402055325FB80085325F780035325FEE525A7
:20028100540F700280FE0524E5245403F524601EB40108E525540260ED8019B40208E5251F
:2002A100540460E2800EE525540860DA8006E525540160D2E5242420F88681D0D0D083D04F
:2002C10082D0F0D0E0F8D0E0D2AF22C0E0E8C0E0C0F0C082C083C0D0E5242420F8A6810582
:2002E10024E5245403F524601EB40108E525540260ED8019B40208E525540460E2800EE50A
:2003010025540860DA8006E525540160D2E5242420F88681D0D0D083D082D0F0D0E0F8D041
:02032100E032C8
:20005400C000A88118C0D0B6001B18B610004015B637005010C0E0E65407B406005004E6D5
:0A00740054F8F6D0E0D0D0D00032EE
:00000001FF
