:040000000200E132E7
:03000B000200E808
:200010000000E2FBEAF2802C0000E0FBEAF08024E6B50202EBF62200E2B50202EBF22200D6
:20003000E0B50202EBF02230F6E0A88220F5D3EAC6F582228B822230F6E6A88220F5D980E6
:01005000CFE0
:03007E000200512C
:030051000200CFDB
:20008100753241E53170FCC2AFE5317015853230753101745AB532057532418005E5320419
:2000A100F532D2AF80DD438920758DFA759850C299D28EE53160FCC2AFE531600D85309986
:2000C100753100D2AF1099EB80FBD2AF80E575300075310075324190008112011C0200A7E7
:0D00E1000200EE22222222020259020054E7
:2000EE00C2AF7525007524007589009000CF12011C85822475A882D28CE5242420F886814E
:20010E00D0D0D083D082D0F0D0E0F8D0E022858228858329A2AFE433F52BC2AFAF255307CB
:20012E000FBF0F0AE52B24FF92AF7582FF22752600752A01E52A5525600DE52604F526E5FE
:20014E002A25E0F52A80EDE52A4225858127E526C454F0FF243FF581C028C029E4C0E0C033
:20016E00E0C0E0C0E0C0E0E526C40354F8F5E0C0E0E5262420F8A681852781E52B24FF92BE
:20018E00AF85268222C2AFC0E0E8C0E0C0F0C082C083C0D0E5242420F8A6810524E5245403
:2001AE0003F524601EB40108E525540260ED8019B40208E525540460E2800EE525540860DE
:2001CE00DA8006E525540160D2E5242420F88681D0D0D083D082D0F0D0E0F8D0E0D2AF22D4
:2001EE00C2AFE5246015B401055325FD8010B402055325FB80085325F780035325FEE5251B
:20020E00540F700280FE0524E5245403F524601EB40108E525540260ED8019B40208E52592
:20022E00540460E2800EE525540860DA8006E525540160D2E5242420F88681D0D0D083D0C2
:20024E0082D0F0D0E0F8D0E0D2AF22C0E0E8C0E0C0F0C082C083C0D0E5242420F8A68105F5
:20026E0024E5245403F524601EB40108E525540260ED8019B40208E525540460E2800EE57D
:20028E0025540860DA8006E525540160D2E5242420F88681D0D0D083D082D0F0D0E0F8D0B5
:0202AE00E0323C
:20005400C000A88118C0D0B6001B18B610004015B637005010C0E0E65407B406005004E6D5
:0A00740054F8F6D0E0D0D0D00032EE
:00000001FF
