:030000000200B447
:200008000000E2FBEAF2802C0000E0FBEAF08024E6B50202EBF62200E2B50202EBF22200DE
:20002800E0B50202EBF02230F6E0A88220F5D3EAC6F582228B822230F6E6A88220F5D980EE
:01004800CFE8
:03004C0002004966
:030049000200A210
:20004F00753241E531600512014080F7853230753101745AB532057532418005E53204F59F
:20006F003212014080DDE589540F4420F589758DFA759850C299D28EE5317005120140806A
:20008F00F785309975310020990512014080F8C29980E575310075300075324190004F12F9
:0C00AF0000DF0200750200BB22222222AA
:2000BB0075250075240075813F9000A21200DF858224E5242420F98781D0D0D083D082D00C
:2000DB00F0D0E022858228858329AF2553070FBF0F047582FF22752600752A01E52A5525F8
:2000FB00600DE52604F526E52A25E0F52A80EDE52A4225858127E526C454F0FF243FF58120
:20011B00C028C029E4C0E0C0E0C0E0C0E0E526C40354F8F5E0C0E0E5262420F8A6818527E2
:20013B008185268222C0E0C0F0C082C083C0D0E5242420F8A681E52404F52474FC252450D4
:20015B00037524008524F005F07401800225E0D5F0FBF52AE52A552560DCE5242420F987ED
:20017B0081D0D0D083D082D0F0D0E0228524F005F07401800225E0D5F0FBF45225E524044A
:20019B00F52474FC252450037524008524F005F07E017F008006EE2EFEEF33FFD5F0F7ACD1
:1F01BB00257D00EC5206ED5207EE4F60D0E5242420F98781D0D0D083D082D0F0D0E02267
:00000001FF
