:040000000201EF32D8
:03000B000201F6F9
:200010000000E2FBEAF2802C0000E0FBEAF08024E6B50202EBF62200E2B50202EBF22200D6
:20003000E0B50202EBF02230F6E0A88220F5D3EAC6F582228B822230F6E6A88220F5D980E6
:01005000CFE0
:03007E000200512C
:030051000201C2E7
:20008100753541E53B60FCC2AFE53B6009E53B14F53BD2AF8004D2AF80E9E53960FCC2AFC0
:2000A100E5396009E53914F539D2AF8004D2AF80E9E53860FCC2AFE5386009E53814F5389B
:2000C100D2AF8004D2AF80E9E5342430F8A635E53404F5347403B534037534000538053A22
:2000E100745AB535057535418005E53504F535053C8090753630E53C60FCC2AFE53C6009E6
:20010100E53C14F53CD2AF8004D2AF80E9E53960FCC2AFE5396009E53914F539D2AF8004B2
:20012100D2AF80E9E53860FCC2AFE5386009E53814F538D2AF8004D2AF80E9E5342430F8B2
:20014100A636E53404F5347403B534037534000538053A7439B536057536308005E53604D8
:20016100F536053B8090438920758DFA759850C299D28EE53A60FCC2AFE53A6009E53A145C
:20018100F53AD2AF8004D2AF80E9E53860FCC2AFE5386009E53814F538D2AF8004D2AF806C
:2001A100E9E5332430F98737E53304F5337403B53303753300053805398537991099B48037
:2001C100FB753300753400753541753630753700753801753903753A00753B01753C009060
:1B01E100008112022A9000F412022A0201670201FC22222222020367020054CF
:2001FC00C2AF7525007524007589009001C212022A85822475A882D28CE5242420F886813C
:20021C00D0D0D083D082D0F0D0E0F8D0E022858228858329A2AFE433F52BC2AFAF255307BC
:20023C000FBF0F0AE52B24FF92AF7582FF22752600752A01E52A5525600DE52604F526E5EF
:20025C002A25E0F52A80EDE52A4225858127E526C454F0FF243FF581C028C029E4C0E0C024
:20027C00E0C0E0C0E0C0E0E526C40354F8F5E0C0E0E5262420F8A681852781E52B24FF92AF
:20029C00AF85268222C2AFC0E0E8C0E0C0F0C082C083C0D0E5242420F8A6810524E52454F4
:2002BC0003F524601EB40108E525540260ED8019B40208E525540460E2800EE525540860CF
:2002DC00DA8006E525540160D2E5242420F88681D0D0D083D082D0F0D0E0F8D0E0D2AF22C5
:2002FC00C2AFE5246015B401055325FD8010B402055325FB80085325F780035325FEE5250C
:20031C00540F700280FE0524E5245403F524601EB40108E525540260ED8019B40208E52583
:20033C00540460E2800EE525540860DA8006E525540160D2E5242420F88681D0D0D083D0B3
:20035C0082D0F0D0E0F8D0E0D2AF22C0E0E8C0E0C0F0C082C083C0D0E5242420F8A68105E6
:20037C0024E5245403F524601EB40108E525540260ED8019B40208E525540460E2800EE56E
:20039C0025540860DA8006E525540160D2E5242420F88681D0D0D083D082D0F0D0E0F8D0A6
:0203BC00E0322D
:20005400C000A88118C0D0B6001B18B610004015B637005010C0E0E65407B406005004E6D5
:0A00740054F8F6D0E0D0D0D00032EE
:00000001FF
