:04000000020578324B
:03000B0002057F6C
:200010000000E2FBEAF2802C0000E0FBEAF08024E6B50202EBF62200E2B50202EBF22200D6
:20003000E0B50202EBF02230F6E0A88220F5D3EAC6F582228B822230F6E6A88220F5D980E6
:01005000CFE0
:03007E000200512C
:030051000204AEF8
:20008100120836E58260F9E53060FCC2AFE5306009E53014F530D2AF8004D2AF80E9120898
:2000A100428582320530120836E58270F975310112064480CBE53760030201807582801296
:2000C10007817582381207CD7582301207CD7582351207CD7582311207CD7582201207CD58
:2000E1007582521207CD7582551207CD75824E1207CD75824E1207CD7582451207CD75822F
:20010100521207CD7582201207CD7582201207CD7582201207CD7582201207CD7582C012E9
:2001210007817582301207CD75822D1207CD7582391207CD7582201207CD7582541207CDDB
:200141007582481207CD7582451207CD75824E1207CD7582201207CD7582231207CD758238
:20016100201207CD7582201207CD7582201207CD7582201207CD7582201207CD02033C74CF
:2001810001B537028003020259758280120781E52B60FCC2AFE52B6009E52B14F52BD2AF63
:2001A1008004D2AF80E9852C2A753F0074F8253F401AC0E0E52A548033340023F58212077A
:2001C100CDE52A23F52AD0E0053F80E0852D2A74F1253F401AC0E0E52A548033340023F5AB
:2001E100821207CDE52A23F52AD0E0053F80E07582C0120781852E2A753F0074F8253F40FF
:200201001AC0E0E52A548033340023F5821207CDE52A23F52AD0E0053F80E0852F2A74F171
:20022100253F401AC0E0E52A548033340023F5821207CDE52A23F52AD0E0053F80E0052BC0
:20024100E534030354C0FF74804FF5821207817582011207CD02033C7402B537028003020F
:20026100033C7582801207817582201207CD7582201207CD7582201207CD7582471207CD12
:200281007582411207CD75824D1207CD7582451207CD7582201207CD75824F1207CD7582D3
:2002A100561207CD7582451207CD7582521207CD7582201207CD7582201207CD7582C012ED
:2002C10007817582201207CD7582201207CD7582201207CD7582531207CD7582431207CD4E
:2002E10075824F1207CD7582521207CD7582451207CD75823A1207CD7582201207CDAF3687
:2003010075F00AEF842430F5821207CDAF3675F00AEF84AFF074302FF5821207CD7582209C
:200321001207CD7582201207CD7582231207CD75823D1207CD7582521207CD120644020032
:20034100B6E537704A7535FF7401B53130E53060FCC2AFE5306009E53014F530D2AF800429
:20036100D2AF80E985323375310005307423B53306E53524F6500BE53324D0F53512064427
:2003810080C6AF35740AC39FF53875370180B27401B537028003020466753400753600752B
:2003A1002C12752D48752E24752F817401B537917401B53131E53060FCC2AFE5306009E565
:2003C1003014F530D2AF8004D2AF80E985323375310005307432B53305753400800874388F
:2003E100B53303753401E5387056AF35740AC39FF538E52B60FCC2AFE52B6009E52B14F524
:200401002BD2AF8004D2AF80E9C0E0E52DC333F52DE52C33F52CE52D3400F52DE52FC33320
:20042100F52FE52E33F52EE52F3400F52FC3E52C452E33E434002536F536D0E0052B800248
:200441001538E5347006E52CFF20E70B7401B5340EE52EFF30E70815367537020203AC1244
:2004610006440203AC7402B5370280030203427531007402B5370280030203427401B53123
:2004810027E53060FCC2AFE5306009E53014F530D2AF8004D2AF80E98532337531000530D2
:2004A1007423B5330375370012064480C5752B0175300175280112083012076E7582481265
:2004C10007819008DAE493F5821207CD9008DBE493F5821207CD9008DCE493F5821207CDBE
:2004E1009008DDE493F5821207CD9008DEE493F5821207CD9008DFE493F5821207CD900885
:20050100E0E493F5821207CD9008E1E493F5821207CD7582501207819008E2E493F582127E
:2005210007CD9008E3E493F5821207CD9008E4E493F5821207CD9008E5E493F5821207CDF6
:200541009008E6E493F5821207CD9008E7E493F5821207CD9008E8E493F5821207CD900809
:20056100E9E493F5821207CD9000811205B69000B61205B602034202058522222222020768
:040581001002005410
:1008DA000705060714170E0A04051515160C040455
:20058500C2AF7520007521007528017589009004AE1205B685822175A882D28CE52124249C
:2005A500F88681D0D0D083D082D0F0D0E0F8D0E02285823C85833DA2AFE433F53EC2AFAF75
:2005C5002053070FBF0F0AE53E24FF92AF7582FF22752200E52020E0057522008017E52042
:2005E50020E105752201800DE52020E20575220280037522038522F005F07401800225E081
:20060500D5F0FB4220858123E522C454F0FF243FF581C03CC03DE4C0E0C0E0C0E0C0E0C086
:20062500E0E522C40354F8F5E0C0E0E5222424F8A681852381E53E24FF92AF85228222C21B
:20064500AFC0E0E8C0E0C0F0C082C083C0D0E5212424F8A681E52125285403F521601EB49A
:200665000108E520540260ED801CB40208E520540460E28011E520540860DA80096328FE8D
:20068500E520540160CFE5212424F88681D0D0D083D082D0F0D0E0F8D0E0D2AF22C2AFE529
:2006A500216015B401055320FD8010B402055320FB80085320F780035320FEE520540F70FE
:2006C5000280FEE52125285403F521601EB40108E520540260ED801CB40208E520540460DB
:2006E500E28011E520540860DA80096328FEE520540160CFE5212424F88681D0D0D083D03C
:2007050082D0F0D0E0F8D0E0D2AF22C0E0E8C0E0C0F0C082C083C0D0E5212424F8A681E558
:200725002125285403F521601EB40108E520540260ED801CB40208E520540460E28011E587
:2007450020540860DA80096328FEE520540160CFE5212424F88681D0D0D083D082D0F0D021
:05076500E0F8D0E032D5
:20076A00852982221207A375820712078175820F12078175290122AF8275290074F05FF5E1
:20078A0090D292C292EFC454F0F590D292C29275822812082C75290122752900759020D218
:2007AA0092C29275822812082CD292C29275822812082CD297D292C29275822812082C75CC
:2007CA00290122AF8275290074F05F4408F590D293D292C292EFC454F0FF74084FF590D22B
:2007EA0092C29275822812082C75290122AD82AE83AFF08D828E838FF01208BEFCA3AD829F
:20080A00AE83EC601C8D828E838FF01208BEF582C007C006C0051207CDD005D006D007800D
:06082A00D222D582FD225E
:20083000D2B37580F0227580F0A2B3B3E433F58222227580F774B7B580047582312274D778
:20085000B580047582322274E7B58004758233227580FB74BBB580047582342274DBB580FB
:20087000047582352274EBB58004758236227580FD74BDB580047582372274DDB580047584
:2008900082382274EDB58004758239227580FE74BEB5800475822A2274DEB580047582302D
:0E08B0002274EEB58004758223227582002228
:20005400C000A88118C0D0B6001B18B610004015B637005010C0E0E65407B406005004E6D5
:0A00740054F8F6D0E0D0D0D00032EE
:1C08BE0020F71430F6148883A88220F507E6A88375830022E280F7E49322E02249
:00000001FF
